:020000040800F2
:10000000D00500209D0100080F280008A721000846
:100010000D280008A1060008D931000800000000E2
:100020000000000000000000000000002F28000871
:10003000E3060008000000001128000881280008DD
:10004000B7010008B7010008B7010008B7010008B0
:10005000B7010008B7010008B7010008B7010008A0
:10006000B7010008B7010008B7010008B701000890
:10007000B7010008B7010008B7010008B701000880
:10008000B7010008B7010008B7010008B701000870
:10009000B7010008B7010008B7010008B701000860
:1000A000B7010008B7010008B7010008B701000850
:1000B000B70100080000000000000000B7010008C0
:1000C000B7010008B7010008B701000800000000F0
:1000D000B7010008B7010008CD310008B7010008DA
:1000E000B7010008B7010008B701000800000000D0
:1000F0000000000000000000000000000000000000
:10010000000000000000000000000000B70100082F
:100110000000000000000000B7010008000000001F
:1001200000000000000000000000000000000000CF
:1001300000000000000000000000000000000000BF
:10014000B7010008B701000800000000000000002F
:10015000000000000000000000000000000000009F
:10016000B7010008B7010008B7010008B70100088F
:10017000B7010008000000000000000000000000BF
:1001800000000000B7010008DFF80CD000F0AAF969
:100190000048004789320008D00500200648804703
:1001A00006480047FEE7FEE7FEE7FEE7FEE7FEE75C
:1001B000FEE7FEE7FEE7FEE7F928000889010008F0
:1001C0002DE9F05F0546002092469B46884606468C
:1001D000814640241BE0284641464746224600F01F
:1001E00020F853465A46C01A914110D3114618467A
:1001F000224600F0D3F82D1A67EB01084F4622463D
:100200000120002100F0CAF817EB00094E41201E22
:10021000A4F10104DFDC484631462A464346BDE8E6
:10022000F09F202A04DB203A21FA02F000217047D7
:1002300021FA02F3D040C2F120029140084319464E
:100240007047D2B201E000F8012B491EFBD2704783
:100250000022F6E710B513460A4604461946FFF792
:10026000F0FF204610BD2DE9FE4F81EA030404F0A3
:10027000004421F0004100944FF0000B23F00043B4
:1002800050EA01045ED052EA03045BD0C3F30A547F
:10029000C1F30A552C44A4F2F3340194A0FB025498
:1002A000C1F3130141F48011C3F3130343F480132A
:1002B00001FB024400FB034E840A970A44EA81547E
:1002C00047EA8357A4FB076802958D0A05FB07855B
:1002D0004FEA932C04FB0C542705029D4FEA065865
:1002E00047EA1637B5EB08056EEB070C870E920E42
:1002F00047EA811742EA8312A7FB0201B6EB0B0122
:1003000064EB00042B0D43EA0C335E1844EB1C50E5
:10031000DA465146E7FB0201C5F313044FEA0B33FB
:1003200043EA14534FEA0432019C43EA0603A4F162
:100330000C040294009CCDE900B400F084F803B0F2
:10034000BDE8F08F00200146F9E70EB540F23341D9
:1003500002910021CDE900110A460B4600F073F826
:1003600003B000BD01F0004330B421F0004150EA79
:10037000010206D00A0DA2F56072C1F31301002A32
:1003800002DC30BC00207047440F44EAC104C100C5
:10039000E01830BC00EBC25000F00FB8202A04DB9C
:1003A000203A00FA02F1002070479140C2F1200388
:1003B00020FA03F31943904070470029A8BF704703
:1003C000401C490008BF20F00100704710B4B0FA8B
:1003D00080FC00FA0CF050EA010404BF10BC704726
:1003E00049B1CCF1200421FA04F411FA0CF118BF40
:1003F000012121430843A3EB0C01CB1D4FEA00610F
:100400004FEA102042BF002010BC704700EBC350E1
:1004100010440029A4BF10BC7047401C490008BF0D
:1004200020F0010010BC704710B5141E73F10004D9
:1004300008DA401C41F1000192185B411A4301D1D6
:1004400020F0010010BD2DE9F04D92469B4611B100
:10045000B1FA81F202E0B0FA80F220329046FFF762
:100460009DFF04460F4640EA0A0041EA0B0153464D
:100470005A46084313D0114653EA010019D0C8F177
:1004800040025046FFF7CDFE05460E4650465946FF
:100490004246FFF783FF084305D0012004E02046D1
:1004A0003946BDE8F08D0020054346EAE0762C434E
:1004B00037430A986305E40AA0EB08000022FD0A0E
:1004C00044EA47540A3002D500200146E9E7010515
:1004D00010196941DDE9084500196941BDE8F04D91
:1004E000A2E70000064C074D06E0E06840F001037B
:1004F00094E8070098471034AC42F6D3FFF748FE63
:10050000BC330008DC33000870B50446006881681D
:1005100001F00301012926D10168C90723D08168B0
:1005200001F00D01012910D1816841F002018160C3
:1005300021680320086000F0BFFC05460FE000BF03
:1005400000F0BAFC401B022809D9206C40F01000D2
:100550002064606C40F001006064012070BD206880
:100560008068C007ECD1002070BD000070B5044663
:100570000068816801F00301012902D10168C907FF
:1005800020D18168104A11420DD1816841F00101EA
:10059000816000F091FC05460FE000BF00F08CFC8C
:1005A000401B022809D9206C40F010002064606CC8
:1005B00040F001006064012070BD20680068C04305
:1005C000C007EBD1002070BD3F00008010B504468D
:1005D000006AFFF7BAFE9FED2C1B53EC112BFFF7BF
:1005E00042FEFFF7BFFE94ED0A0A00EE900AB8EE55
:1005F000400A30EE600AB5EEC00AF1EE10FA01D200
:10060000B1EE400A9FED221A60EE011A81EEA00AB7
:1006100084ED060AB5EEC00AF1EE10FA02D29FEDA3
:100620001D0A06E010EE100A1B49884201DDB0EEFB
:10063000410A84ED060A20690168C86A626900EE11
:10064000900AF8EE600A20EE200ADFED140A20EE90
:10065000200ABCEEC00A10EE100A80B24AB1042A89
:1006600009D0082A09D00C2A09D0102A09D0C86557
:1006700010BD486310BD886310BDC86310BD086419
:1006800010BD886510BD0000000000000000E03FC4
:100690000000C842000000000000C8420AD7233C06
:1006A000FEE70000024600205FF0070122FA01F396
:1006B000012B04D0491E49B20029F7DA7047C8B2AD
:1006C00070470000024600205FF0070122FA01F3A4
:1006D000012B04D0491E49B20029F7DA7047C8B28D
:1006E000704770477047002803D0817A00228272D9
:1006F00008467047F0B594B00025009590F83C206E
:100700002E46012A19D0012780F83C7003689A68A8
:1007100052077DD44A681F24052A11D2D3F830C06D
:1007200002EB4202520094402CEA040C0C68944004
:100730004CEA040CC3F830C035E0022014B0F0BD20
:100740000A2A0FD2D3F834C0521F02EB42025200E1
:1007500094402CEA040C0C6894404CEA040CC3F856
:1007600034C020E00F2A0FD2D3F838C00A3A02EB87
:100770004202520094402CEA040C0C6894404CEA6B
:10078000040CC3F838C00EE0D3F83CC00F3A02EBBB
:100790004202520094402CEA040C0C6894404CEA4B
:1007A000040CC3F83CC00268936813F00C0F4FF0C0
:1007B000070373D10C680A2C11D3D2F818C00A3C75
:1007C00004EB440403FA04FE2CEA0E0CD1F808E012
:1007D0000EFA04FE4CEA0E0CC2F818C00FE0D2F874
:1007E00014C004EB440403FA04FE2CEA0E0CD1F806
:1007F00008E00EFA04FE4CEA0E0CC2F814C00268BF
:100800004C69D2F80CC0CCF3C10C4FEA4C0C00E0A0
:10081000CDE004FA0CF4D1F810E0DFF8F4C1BEF139
:10082000010F42D0BEF1020F4DD0BEF1030F58D0E0
:10083000BEF1040F63D0146E91F800C004F0F844C8
:10084000B4EB8C6F03D1146E24F00044146602687C
:10085000546E91F800C004F0F844B4EB8C6F03D1EF
:10086000546E24F0004454660268946E91F800C0FF
:1008700004F0F844B4EB8C6F03D1946E24F0004480
:1008800094660268D46E91F800C004F0F844B4EBAA
:100890008C6F03D1D46E24F00044D466026894684F
:1008A00004F00304012C3AD136E0D2F860E00EEAFD
:1008B0000C0E91F800C044EA8C644EEA040E4EF02F
:1008C00000441466EAE7D2F864E00EEA0C0E91F8F0
:1008D00000C044EA8C644EEA040E4EF000445466B4
:1008E000DCE7D2F868E00EEA0C0E91F800C044EAAA
:1008F0008C644EEA040E4EF000449466CEE7D2F8C3
:100900006CE00EEA0C0E91F800C044EA8C644EEAEA
:10091000040E4EF00044C0E71468E4074CD1CC68E4
:10092000012C06D052F8B03F0C78A740BB431360AF
:1009300020E052F8B04F91F800C007FA0CF73C43A2
:1009400014600A6804680A2A0AD3A769093A02EB04
:10095000420293409F438B6893401F43A76109E085
:100960006769521C02EB420293409F438B6893409D
:100970001F4367610968274A102904D0112905D04F
:10098000122906D018E093681B0204E09368DB018B
:1009900001E093685B02002B0EDB009603689C6805
:1009A00004F00304012C0BD11C68E40708D0016C8F
:1009B00041F020010164012580F83C602846BDE635
:1009C0004FF0A044102908D011291AD01229F3D1D0
:1009D000916841F480019160EEE7A342ECD1916807
:1009E00041F4000191600C490C4A0968B1FBF2F135
:1009F00001EB8101490000E0491E00910029FBD173
:100A0000DAE7A342D8D1916841F08071E3E70000B2
:100A100000F0FF83000300503000002040420F0030
:100A2000F0B54FF0000695B0040037463546009605
:100A300005D0206CC00648D4206C18B133E00120EA
:100A400015B0F0BD6564E564A56484F83C502046AB
:100A500000F0C6F820688068C00024D42046FFF764
:100A600053FD0646206CC0061DD4E6B9206C20F468
:100A7000885040F0020020642068816821F04051D5
:100A800081602068816841F0805181604F48504901
:100A90000068B0FBF1F000EB8000400000E0401E79
:100AA00000900028FBD120688168C90002D58068C9
:100AB00080000AD5206C20F0020040F01000206475
:100AC000606C40F0010060640126206CC00673D4A5
:100AD000002E71D12168886840076DD4206C20F405
:100AE000807040F00200206400953A488A6802F065
:100AF0000302012A02D10968C90705D18168626829
:100B000021F4403111438160D4E902100843616B44
:100B1000012902D04FF4805200E00022617E42EAB7
:100B20004132104394F820203843012A0AD1A9B158
:100B3000216C21F0020141F020012164616C41F03F
:100B400001016164A16A012902D0E26A11430843EC
:100B500021688A6812F00C0F08D013E0A18C1E4A9D
:100B600002EB4141014341F48030EBE7CA6844F2B3
:100B700002039A43CA60217E94F83020890341EA37
:100B8000420108432168CA68144B1A400243CA60F4
:100B9000206901282068016B21F00F0102D1E26970
:100BA000521E114301636564206C20F0020040F086
:100BB0000100206407E0FFE7206C20F0020040F015
:100BC00010002064012630463AE700003000002083
:100BD00040420F00000300500000FEFF07C0F0FF7E
:100BE00010B586B0044614216846FFF731FB206833
:100BF000B0F1A04F1AD10E48416941F080514161D6
:100C0000416901F080510591416941F480214161C0
:100C10004069694600F4802005900220009003207E
:100C2000019000200290034800F07CF806B010BD4F
:100C3000001002400004004810B5044600688068B7
:100C4000400736D494F83C00012832D0012084F8C3
:100C50003C002046FFF78AFC002110B184F83C10CC
:100C600010BD226C40F601639A4342F48072226404
:100C7000226C22F4801222642268D3689B0105D57D
:100C8000236C23F4005343F480532364236CDB046C
:100C900004D5636C23F00603636400E0616484F8A8
:100CA0003C101C21116021688A6842F004028A60AD
:100CB00010BD022010BD10B590F8211000240229AB
:100CC00003D004218163012418E001680A6822F03E
:100CD0000E020A6001680A6822F001020A6090F8B8
:100CE0004020C36B012101FA02F25A6080F8211002
:100CF000002180F82010416B01B18847204610BDCB
:100D000070B5044600F0D8F80546601C02D00448CF
:100D10000078044400F0D0F8401BA042FAD370BD24
:100D2000240000202DE9F84FDFF860B100234FF0D8
:100D3000010C4FF0030A4FF00F090BF1040E9DE078
:100D40000CFA03F6344022007ED04C68022C01D00D
:100D5000122C0ED1DC0800EB8408D8F820405D0787
:100D6000EF0E09FA07F5AC430D69BD402543C8F8FD
:100D7000205007685D0091F804800AFA05F408F035
:100D80000308A74308FA05F848EA0708C0F80080F6
:100D90004F68012F05D0022F03D0112F01D0122F41
:100DA00011D18768D1F80C80A74308FA05F848EA02
:100DB0000708C0F808804768B7430E79C6F30016E5
:100DC0009E403E434660C668A6438C68AC403443B0
:100DD000C4604C68E40050D52D4CA56945F0010570
:100DE000A561A46923F0030504F001040094294CD3
:100DF0002E19B4689D072F0F09FA07F5AC43B0F11F
:100E0000904F04D0244DA84203D101250CE00025C9
:100E10000AE0224DA84201D1022505E0204DA8425A
:100E200001D1032500E00525BD402543B560DBF871
:100E300000405D464E689443F60300D514432C6091
:100E40007546DEF8004000E017E04E689443B603B4
:100E500000D514432C600D4D08352C684E68944322
:100E6000F60200D514432C60084D0C352C684E68F2
:100E70009443B60200D514432C605B1C0A681446E8
:100E8000DA407FF45DAFBDE8F88F00000004014058
:100E90000010024000000140000400480008004823
:100EA000000C00480069084000D0012070470AB1DA
:100EB0008161704781627047014880687047000017
:100EC0002400002002488168027811448160704744
:100ED00024000020074810B5016841F010010160AE
:100EE000032000F06FF8002000F006F800F024F86E
:100EF000002010BD0020024070B50D4D04464FF497
:100F00007A712878B1FBF0F00A490968B1FBF0F07A
:100F100000F052FD48B9102C07D200222146501E85
:100F200000F030F800206C6070BD012070BD000042
:100F300024000020300000200A4882B0816941F07E
:100F400001018161816901F001010091C16941F0F4
:100F50008051C161C06900F080500090052002B04E
:100F600000F030B800100240002809DB00F01F023A
:100F7000012191404009800000F1E020C0F80011FB
:100F800070470000F0B40E4B1B680C46C3F30223FD
:100F9000C3F10705042D00D90425191D072901D225
:100FA000002300E0DB1E012606FA05F1491E214060
:100FB00099409E40761E16403143F0BC02F044B981
:100FC0000CED00E0064900F0070208684FF6FF0349
:100FD000184040EA0220034A1043086070470000AE
:100FE0000CED00E00000FA052DE9F84F0546006819
:100FF000774CC0036FD5E0690026C00008D4E069D3
:1010000040F08050E061E069012600F080500090DF
:1010100070480168C90512D40168804641F48071A6
:101020000160FFF749FF074605E000BFFFF744FFF7
:10103000C01B642835D8D8F80000C005F6D5206A52
:1010400010F4407053D0A98801F4407181424ED011
:10105000206A4FF4803191FAA1F2B2FA82F297003D
:101060005D4A4FF00108174420F44070C7F800842F
:1010700091FAA1F1B1FA81F102EB81010023C1F8EB
:1010800000342062C00732D0FFF716FF074641F256
:10109000883A4FF0020907E0FFF70EFFC11B5145E8
:1010A00002D90320BDE8F88F99FAA9F1B1FA81F1CC
:1010B00041F040014846B8EB511F01D121680CE0D6
:1010C00090FAA0F1B1FA81F141F04001B0EB511F6B
:1010D00002D1216A01E015E0616A99FAA9F0B0FA3B
:1010E00080F000F01F0008FA00F21142D4D0206A0C
:1010F000696820F44070084320621EB1E06920F066
:101100008050E0612878C00705D0206BA96820F0E6
:101110000300084320632878800605D5206BE96822
:1011200020F01000084320632868800305D560681C
:10113000296B20F48000084360602878400605D5BC
:10114000206B296920F020000843206328880004D0
:1011500005D5206B696920F040000843206328888A
:10116000800505D56068E96920F4000008436060E7
:101170002878000605D5E06AA96920F4F8700843CC
:10118000E0622888C00405D5206B296A20F48070AD
:10119000084320632868400305D5206B696A20F462
:1011A0008060084320632868000305D5206BA96A86
:1011B00020F40060084320632868C00205D5206B36
:1011C000E96A20F400500843206300206AE7000029
:1011D0000010024000700040000042422DE9F0473C
:1011E0000F46050069D04A4E306800F00700B8424B
:1011F00009D2306820F0070038433060306800F0D2
:101200000700B84259D12878424C800705D560685C
:10121000A96820F0F000084360602878C0073DD03E
:101220006968012001290DD0022923D05FF0020353
:1012300093FAA3F2B2FA82F242F02002520904D0E9
:10124000226803E04FF40033F2E7626A93FAA3F3F3
:10125000B3FA83F303F01F03984002422DD0606875
:1012600020F0030008436060FFF726FE804641F24D
:1012700088390CE04FF00073DAE700BFFFF71CFE7F
:10128000A0EB0801494502D90320BDE8F08760685A
:10129000696800F00C00B0EB810FEFD1306800F00E
:1012A0000700B8420BD9306820F00700384330609F
:1012B000306800F00700B84201D00120E5E7287847
:1012C000400705D56068E96820F4E0600843606085
:1012D0002878000706D56068296920F4605040EA44
:1012E000C100606000F04EF86168F02292FAA2F24C
:1012F00001F0F001B2FA82F2D140074A515CC840D5
:101300000649086006480068FFF7F6FD0020BCE7C4
:101310000020024000100240A433000830000020EA
:101320002800002008480949006849684FF4E06235
:1013300092FAA2F201F4E061B2FA82F2D140044AD8
:10134000515CC8407047000030000020001002408F
:10135000B433000808480949006849684FF46052EE
:1013600092FAA2F201F46051B2FA82F2D140044A38
:10137000515CC8407047000030000020001002405F
:10138000B4330008164A10B55168164801F00C0332
:10139000042B20D0082B1ED14FF4701494FAA4F41F
:1013A00001F47013B4FA84F4E3400F4CD26AE45CA5
:1013B0000F2393FAA3F302F00F02B3FA83F3DA4098
:1013C000094B1033C9039A5C06D500231946FEF772
:1013D000F7FEA0FB040110BD0448A4FB000110BDF2
:1013E0000010024000127A008433000800093D001A
:1013F0002DE9F84F050071D02878FC4EC0074FF05A
:10140000010425D070686704C0F38100012807D06B
:101410007068C0F3810002281BD17068C00318D522
:1014200097FAA7F0B0FA80F040F02000400901D010
:10143000306800E0706A97FAA7F1B1FA81F101F023
:101440001F0104FA01F1084265D068680028D2D073
:1014500061E06868B0F5803F0BD010B1B0F5A02F07
:1014600017D0306820F480303060306820F480205D
:1014700002E0306840F480303060F06AA96820F003
:101480000F000843F062686820B3FFF715FD80463F
:101490000AE0306840F480203060EAE7FFF70CFD96
:1014A000A0EB0800642871D897FAA7F0B0FA80F092
:1014B00040F02000400901D0306800E0706A97FADF
:1014C000A7F1B1FA81F101F01F0104FA01F108421C
:1014D000E4D020E0FFF7F0FC804607E0C2E000BF68
:1014E000FFF7EAFCA0EB08006428DCD897FAA7F025
:1014F000B0FA80F040F02000400901D0306800E0F0
:10150000706A97FAA7F1B1FA81F101F01F0104FAAC
:1015100001F10842E4D12878DFF8D48280074FF047
:10152000000A4FF0020730D570684FF0F80B10F04A
:101530000C0F07D07068C0F38100022827D17068B3
:10154000C00324D497FAA7F0B0FA80F040F020004E
:10155000400901D0306800E0706A97FAA7F1B1FA4B
:1015600081F101F01F0104FA01F1084202D028695B
:10157000012877D130689BFAABF220F0F801686956
:10158000B2FA82F29040014331605AE064E1286986
:1015900088B394FAA4F0B0FA80F048F82040FFF73E
:1015A0008BFC814606E000BFFFF786FCA0EB09003C
:1015B00002289AD897FAA7F0B0FA80F040F02000FD
:1015C000400901D0306800E0706A97FAA7F1B1FADB
:1015D00081F101F01F0104FA01F10842E4D0306802
:1015E0009BFAABF26969B2FA82F220F0F8009140FE
:1015F0000843306025E0FFE794FAA4F0B0FA80F0E9
:1016000048F820A0FFF758FC814605E0FFF754FC9E
:10161000A0EB09000228CCD897FAA7F0B0FA80F026
:1016200040F02000400901D0306800E0706A97FA6D
:10163000A7F1B1FA81F101F01F0104FA01F10842AA
:10164000E4D1287800076CD5A869A8B394FAA4F06F
:10165000B0FA80F008EB8000C0F88044FFF72CFC63
:10166000814607E0A4E100BFFFF726FCA0EB0900DC
:1016700002289ED897FAA7F0B0FA80F040F06000F8
:10168000B4EB501F01D130680BE097FAA7F0B0FA25
:1016900080F040F06000B7EB501F01D1306A00E0ED
:1016A000706A97FAA7F1B1FA81F101F01F0104FA0B
:1016B00001F21042D8D034E0FFE794FAA4F1B1FA75
:1016C00081F108EB8101C1F880A4FFF7F5FB8146A9
:1016D00006E000BFFFF7F0FBA0EB090002289AD854
:1016E00097FAA7F0B0FA80F040F06000B4EB501F1A
:1016F00001D130680BE097FAA7F0B0FA80F040F023
:101700006000B7EB501F01D1306A00E0706A97FAB1
:10171000A7F1B1FA81F101F01F0104FA01F21042C0
:10172000D8D12878400768D5F0694FF00009C0008B
:1017300009D4F06940F08050F061F0694FF0010980
:1017400000F0805000902B480168C90512D4016850
:1017500041F480710160FFF7AFFB834606E000BFF4
:10176000FFF7AAFBA0EB0B00642875D8214800689E
:10177000C005F5D5E86801280AD008B1052811D0C0
:10178000306A20F001003062306A20F0040002E08C
:10179000306A40F001003062E86868B3FFF78CFB04
:1017A00083460DE0306A40F004003062F0E700BF8D
:1017B000FFF782FBA0EB0B0141F2883081424BD84E
:1017C00097FAA7F0B0FA80F040F04000B4EB501F59
:1017D00001D1306813E097FAA7F0B0FA80F040F03A
:1017E0004000B7EB501F09D1306A08E000100240FA
:1017F00000004242007000400CE040E0706A97FA3E
:10180000A7F1B1FA81F101F01F0104FA01F21042CF
:10181000CED02DE0FFF750FB834607E0FFF74CFBEF
:10182000A0EB0B0141F28830814215D897FAA7F05E
:10183000B0FA80F040F04000B4EB501F01D13068A6
:101840000CE097FAA7F0B0FA80F040F04000B7EB58
:10185000501F02D1306A01E083E0706A97FAA7F165
:10186000B1FA81F101F01F0104FA01F21042D5D161
:10187000B9F1000F03D0F06920F08050F061E86901
:1018800080B37168C1F38101022977D04FF0807174
:101890004F000228504609D091FAA1F1B1FA81F126
:1018A00048F82100FFF708FB05465DE0894691FAFC
:1018B000A1F1B1FA81F1C24648F82100FFF7FCFA24
:1018C000804605E0FFF7F8FAA0EB0800022848D8A8
:1018D00097FAA7F0B0FA80F040F02000400902D05B
:1018E000306801E066E0706A97FAA7F1B1FA81F119
:1018F00001F01F0104FA01F10842E3D1D5E9081013
:101900000843716821F474110843706099FAA9F0D2
:10191000B0FA80F04AF82040FFF7CEFA054604E01E
:10192000FFF7CAFA401B02281BD897FAA7F0B0FAB3
:1019300080F040F02000400901D0306800E0706A7B
:1019400097FAA7F1B1FA81F101F01F0104FA01F150
:101950000842E5D02EE000BFFFF7AEFA401B022898
:1019600002D90320BDE8F88F97FAA7F0B0FA80F00B
:1019700040F02000400902D0306801E00BE0706ABE
:1019800097FAA7F1B1FA81F101F01F0104FA01F110
:101990000842E1D10EE00128E4D070682A6A00F420
:1019A0008031914204D1696A00F47010884201D0FC
:1019B0000120D7E70020D5E710B5401EB0F1807FA9
:1019C00001D3012010BD4FF0E02460610F216017AA
:1019D00001F03AFC0020A06107202061002010BD2A
:1019E000F0B590F83C20012A29D0012480F83C4031
:1019F000022280F83D2003685A689D68114EB34268
:101A000003D122F470074A683A4322F070070A684B
:101A10003A435A600268B24205D0B2F1804F02D018
:101A2000094B9A4204D1896825F0800319439160DB
:101A300080F83D40002180F83C100846F0BD0220AF
:101A4000F0BD0000002C01400040014010B5040032
:101A500003D094F83D0010B107E0012010BD002034
:101A600084F83C00204600F00DF8022084F83D0088
:101A7000211D206800F04EFF012084F83D00002069
:101A800010BD000008B50068B0F1804F08D10548CE
:101A9000C16941F00101C161C06900F0010000901D
:101AA00008BD000000100240022180F83D100168CE
:101AB0008A68084B1A40062A06D0B2F5803F03D048
:101AC0000A6842F001020A60012180F83D100020FE
:101AD000704700000700010070B5044690F83C0014
:101AE000012817D0012584F83C50022084F83D00DD
:101AF000226890682E4B184020F47F409060086860
:101B0000502830D00DDC20284DD005DC98B31028AB
:101B10003BD148E0022070BD302844D0402834D169
:101B200039E0602828D0702806D0B0F5805F2CD02E
:101B3000B0F5005F29D10AE0CB68D1E90121206826
:101B400000F031FF2068816841F0770109E0CB683F
:101B5000D1E90121206800F026FF2068816841F466
:101B60008041816011E0CA684968206801F08EF800
:101B70005021206807E016E0CA684968206801F033
:101B800096F86021206800F018FF84F83D5000208E
:101B900084F83C0070BDCA684968206801F076F896
:101BA00040212068EFE7226801461046EBE700007D
:101BB00088FFFEFF10B586B0044614216846FEF784
:101BC00047FB2068B0F1804F17D10D48416941F4BF
:101BD000003141614069694600F4003005902020E1
:101BE0000090022001900020029003200390012029
:101BF00004904FF09040FFF795F806B010BD00003C
:101C00000010024070B5044690F83C000D460128D3
:101C10000ED0012684F83C60022084F83D000C2A96
:101C200045D007DC5AB1042A1BD0082A78D12CE011
:101C3000022070BD102A4ED0142A71D15DE02068B8
:101C400000F0C4FE2068816941F0080181612068CC
:101C5000816921F004018161206881692A69114349
:101C600011E0206800F0F6FE2068816941F400610F
:101C700081612068816921F48061816120688169C6
:101C80002A6941EA022181614AE0206800F022FFCE
:101C90002068C16941F00801C1612068C16921F073
:101CA0000401C1612068C1692A69114311E02068FB
:101CB00000F050FF2068C16941F40061C1612068F3
:101CC000C16921F48061C1612068C1692A6941EA62
:101CD0000221C16124E0206800F072FF2068416D9C
:101CE00041F0080141652068416D21F00401416522
:101CF0002068416D2A69114311E0206800F092FFCD
:101D00002068416D41F4006141652068416D21F416
:101D1000806141652068416D2A6941EA022141657F
:101D200084F83D60002084F83C0070BD10B50400CC
:101D300003D094F83D0010B107E0012010BD002051
:101D400084F83C00204600F00CF8022084F83D00A6
:101D5000211D206800F0DEFD012084F83D000020F8
:101D600010BD704710B504460068012200F00EFE59
:101D70000F482168814208D00E48814205D00E48A4
:101D8000814202D00D48814203D1486C40F40040AA
:101D90004864206881680A4A1140062906D0B1F5D6
:101DA000803F03D0016841F001010160002010BDB7
:101DB000002C014000400140004401400048014027
:101DC0000700010010B504460068002200F0DEFDA7
:101DD000144841F2111221689310814208D0124830
:101DE000814205D01148814202D01148814209D177
:101DF000086A104206D1086A184203D1486C20F4E0
:101E0000004048642068016A114206D1016A194203
:101E100003D1016821F001010160012084F83D0037
:101E2000002010BD002C0140004001400044014052
:101E300000480140704770472DE9F04102680446B0
:101E4000D0691168936840F60F0528424FF00005ED
:101E500005D186067BD58E0679D5216E88E003F004
:101E6000010601F49077374371D0C70707D0CF053B
:101E700005D501271762E26F42F00102E26782078F
:101E800008D5DA0706D0276802223A62E26F42F0EC
:101E90000402E267420708D5DA0706D02368042265
:101EA0001A62E26F42F00202E26702070AD501F00D
:101EB0002002324306D0236808221A62E26F42F001
:101EC0000802E267020509D54A0107D523684FF4E5
:101ED00000621A62E26F42F02002E267E26F002ABB
:101EE0002ED0800605D5880603D5216E09B120467F
:101EF0008847E06F21688968490602D410F0280FEE
:101F000020D0204600F0BAFF20688168490614D529
:101F1000816821F040018160E06E70B11D4941632C
:101F2000E06EFEF7C8FE00280AD0E06E416B00E0CC
:101F30002046BDE8F041084709E02046FFF77BFF57
:101F4000BDE8F0812046FFF776FFE567F8E7C602B7
:101F500009D55B0207D54FF4801010622046BDE81A
:101F6000F041FFF767BF030605D50B0603D5616E89
:101F70000029DDD1E4E74006E2D54806E0D5116846
:101F8000204621F04001116020216167656600F064
:101F900009F9D5E7692E000810B5040002D0606F7A
:101FA00010B107E0012010BD002084F87000204629
:101FB00000F026F8242060672068016821F0010104
:101FC0000160204600F0C4FF0128ECD0606A10B127
:101FD000204600F0B9FE2068416821F4904141603C
:101FE0002068816821F02A0181602068016841F041
:101FF000010101602046BDE8104000F009BF00006B
:1020000010B586B0044614216846FEF721F9174939
:102010002068884227D11648C16941F40031C16166
:10202000C16901F400310591416941F40031416118
:102030004069694600F4003005900C2000900220B1
:1020400001900020029003200390072004904FF09D
:102050009040FEF767FE002211462620FEF792FF11
:102060002620FEF781FF06B010BD000000440040AE
:102070000010024030B5836F202B4BD1B1B1AAB113
:1020800090F87030012B45D0012380F87030416505
:10209000A0F85820A0F85A20002101661D0382688C
:1020A000FF23AA4207D1026912B125E0012030BD09
:1020B00040F2FF1226E07F24E2B1B2F1805F1ED031
:1020C000A0F85C10C167222282670268936843F01F
:1020D000010393608268AA4201D10269C2B10E4A2B
:1020E000026680F870100068016841F49071016028
:1020F000002030BD026942B9A0F85C30E2E7026915
:102100001AB13F22A0F85C20DCE7A0F85C40D9E7D8
:10211000024AE5E7022030BDF52E00089B2E00089C
:1021200004480168491C0160012203490348FFF784
:10213000A1BF00000800002000000020C400002013
:10214000436F202B28D1B1B1AAB190F87030012B88
:1021500022D0012380F87030C164A0F85020A0F88C
:10216000522000214166C167212242678268B2F590
:10217000805F02D003E001207047026952B1074A34
:10218000426680F870100068016841F080010160CB
:1021900000207047024AF3E702207047ED30000844
:1021A000AD3000087047FEE70849012806D0022834
:1021B00007D0042808D1084600F024B9084600F0EA
:1021C000F4B9084600F0DAB9704700009C0100201D
:1021D0002DE9F0411D4F1E4C00267868401C7860A8
:1021E000617801292AD16169B0FBF1F201FB12008B
:1021F00020BB21896068FEF755FE217B814201D119
:10220000012100E0002104F11405284600F010FB34
:102210002846FEF768FA60B1012802D0022808D1EA
:1022200003E0607B00F0050002E0607B00F002004C
:10223000A073A07B10B121698847A6737868B0F5B8
:102240007A7F00D37E60BDE8F08100000C000020A2
:10225000440100202DE9F047154609AA0F46040065
:1022600092E84300DDF82090984612D0B0F1904FEC
:102270000BD0174A904208D0164A904205D0164A11
:10228000904202D0154A904203D111B12EB1012ED5
:1022900003D0134901200870FEE7606021810846E1
:1022A00000F0B7FA6081267325700120607015B1C7
:1022B000012D04D101E0032000E0042060734A46B0
:1022C000414604F114002761BDE8F04700F0CEBAA2
:1022D0000004004800080048000C004800140048B2
:1022E0000C000020017F002934D1017839B1B5EE0E
:1022F000C00AF1EE10FA06D29FED1C0A0AE01C4952
:1023000002200870FEE710EE101A1A4A914201DD11
:102310009FED190A01690A68D16A9FED181A00EE4B
:10232000901A4369F8EE600A60EE200A60EE810AB6
:10233000FCEEE00A10EE901A89B263B1042B0CD0C7
:10234000082B0CD00C2B0CD0102B0CD0C2F85C102E
:1023500080ED060A70475163FAE79163F8E7D163AD
:10236000F6E71164F4E79165F2E700000000000071
:10237000140000200000C8420000C8420AD7233CD5
:1023800070B51D46040012D0B1F1904F0BD0184823
:10239000814208D01748814205D01748814202D0B7
:1023A0001648814203D112B12DB1012D03D0144939
:1023B00001200870FEE761602281100A04D0100A33
:1023C000FEF780F9083002E0D0B2FEF77BF96081B9
:1023D0000121002045B121736073207020772046D1
:1023E000BDE8704000F0CAB820736173F5E70000E3
:1023F0000004004800080048000C00480014004891
:1024000014000020017F002905D1417809B100F0B6
:10241000CCB800F0B3B8704770B5124E002500BFBD
:1024200005EB450006EB0014207FB8B1617F0E4A32
:10243000204652F821108847A06A401CA062216AF9
:1024400088420BD3E06A0021401CC4E90A10616A8B
:1024500021B1884202D3204600F008F86D1C022DFD
:10246000DEDB70BD6C010020180000200021017728
:1024700000F084B870B50446007F002824D161774D
:102480000129C4E9082306D1207870B19FED0F0A15
:102490002046FFF727FF0025E5620120A56220778F
:1024A000207830B101280ED109E0094902200870D6
:1024B000FEE7227B21896068FEF7F9FC03E0D4E99E
:1024C0000401FFF74FFC657070BD000000000000C4
:1024D0001400002010B504000DD061B17AB1042AB7
:1024E0000DD0082A0BD00C2A09D0102A07D0142AA4
:1024F00005D03C2A03D01F4901200870FEE7C4E93B
:10250000041284ED060A012020700B68D86A80B29C
:1025100000EE900AF8EE600A20EE200ADFED160ABF
:1025200020EE200ABCEEC00A10EE100A80B26AB19A
:10253000042A0DD0082A0DD00C2A0DD0102A0DD057
:10254000C3F85C0091F83D0050B10CE05863F9E726
:102550009863F7E7D863F5E71864F3E79865F1E760
:102560000846FFF7A1FA002020772046BDE810407A
:1025700000F004B8140000200AD7233C10B504462C
:10258000007F002810D1207810B101280AD105E081
:10259000627B21896068FEF78AFC03E0D4E90401CC
:1025A000FFF710FC0120607010BD10B50446007FDD
:1025B000002810D1207810B101280AD105E0227B33
:1025C00021896068FEF773FC03E0D4E90401FFF79A
:1025D000C9FB0020607010BD30B587B01821684677
:1025E000FDF736FE16484FF0A0410024C0E9001464
:1025F000846001250461457680F82040C0E90A54D2
:10260000C561C46080F830400421416104764463B0
:10261000FEF706FA08B1FEF765F80C20CDE90005D3
:102620000520CDE902040494694605480594FEF7A7
:1026300061F8002801D0FEF755F807B030BD000062
:1026400034000020F0B587B014216846FDF700FE85
:102650003448416941F400214161416901F400219C
:102660000591416941F480014161416901F48001B2
:102670000591416941F400314161416901F4003142
:102680000591416941F480214161416901F4802152
:102690000591416941F4801141614069224F00F484
:1026A00080100590012204213846FEF700FC00242A
:1026B0004FF40050CDE900041C4E694630460294A8
:1026C000FEF730FB4DF6FF700325CDE900056946A6
:1026D00002943046FEF726FB49F6D370CDE900059B
:1026E000694602944FF09040FEF71CFB4FF6F970DC
:1026F000CDE90005694602943846FEF713FB04262F
:1027000001200096CDE90104039069463846FEF7A2
:1027100009FB0096CDE9015469460548FEF702FB26
:1027200007B0F0BD00100240000400480008004857
:10273000000C004810B58EB000240794089409944A
:102740000A940B940C941C2168460D94FDF780FDAF
:102750001E484FF0804101604721C0E9011440F25A
:10276000E731C0E9031480218161FFF76FF908B1F7
:10277000FDF7B8FF4FF48050079007A91348FFF703
:10278000ABF908B1FDF7AEFF1048FFF7CFFA08B17B
:10279000FDF7A8FF0B940BA90C480D94FFF720F947
:1027A00008B1FDF79FFF6020CDE9000402940022EC
:1027B000694606480494FFF725FA08B1FDF792FF31
:1027C0000248FFF7F7F90EB010BD000084000020AA
:1027D0000D4810B50B4901604FF4E1314160002113
:1027E00081600C22C160C0E904128161C161016293
:1027F0004162FFF7D1FB002803D0BDE81040FDF790
:1028000071BF10BD00440040C4000020FEE77047C7
:10281000704710B580B2010A04D0000AFDF742FFEC
:10282000083010BDBDE81040C0B2FDF73BBF704797
:10283000002818D0426841EA42024260037A0A49FD
:1028400051F823100A40914205D1417A012909D05B
:102850000121817205E02AB9417A19B10221817200
:1028600000214172407A704700330008002806D0EA
:102870000160027200214160817241720120704743
:1028800010B5FEF71FFBFFF7A3FCBDE81040FFF7F4
:10289000C3BD30B59DB028216846FDF7D9FC142191
:1028A00017A8FDF7D5FC34210AA8FDF7D1FC0121BA
:1028B0000804CDE900100024029402250491CDE91A
:1028C00007504FF4E01009906846FEF791FD0F2085
:1028D000CDE917056802CDE91940022117A81B941C
:1028E000FEF77CFC80200A90400010900AA8FEF7BA
:1028F0007BFB1DB030BD00000548016841F470014C
:10290000016003494FF000608039086070470000A3
:1029100088ED00E0F0B50268184B4FF08047984210
:1029200001D0B84203D122F070044A682243144C0B
:10293000144D154E984207D0B84205D0A04203D09E
:10294000A84201D0B04203D122F44077CA683A438A
:102950004F6922F080023A4302608A68C2620A68C4
:102960008262984205D0A04203D0A84201D0B04272
:1029700001D10969016301214161F0BD002C0140D1
:1029800000400140004401400048014010B501F002
:102990001F030121046A99408C430462016A9A4032
:1029A0001143016210BD10B5846842EA032224F489
:1029B0007F440A432243826010BD826822F0700285
:1029C0000A4342F00701816070470000F0B5026AD7
:1029D00022F001020262056A43688269184C25F000
:1029E000020522400C6822F0030214438A68164E46
:1029F0002A43144D154FDFF858C0A84205D0B04205
:102A000003D0B84201D0604506D122F0080ECA6852
:102A100042EA0E0222F00402A84205D0B04203D0DE
:102A2000B84201D0604505D14D6923F440731D4380
:102A30008B692B4343608461496841630262F0BD46
:102A40008FFFFEFF002C0140004001400044014088
:102A50000048014030B5026A22F010020262046AA6
:102A600042688369164D2B400D6823F4407343EA96
:102A7000052524F020038C6843EA0413114CA0427E
:102A800007D1CC6823F0800343EA041323F040030A
:102A900008E00D4CA04205D00C4CA04202D00C4CDA
:102AA000A04207D14C6922F4406242EA84028C6958
:102AB00042EA84024260856149688163036230BDF5
:102AC000FF8FFFFE002C0140004001400044014008
:102AD0000048014030B5026A22F480720262046A42
:102AE0004268C369164D2B400D6823F003031D4354
:102AF00024F400738C6843EA0423124CA04207D1EB
:102B0000CC6823F4006343EA042323F4806308E0E1
:102B10000D4CA04205D00D4CA04202D00C4CA0425E
:102B200007D14C6922F4405242EA04128C6942EA0D
:102B300004124260C5614968C163036230BD000090
:102B40008FFFFEFF002C0140004001400044014087
:102B50000048014030B5026A22F480520262046AE1
:102B60004268C369114D24F400542B400D6823F4CE
:102B7000407343EA05238D6844EA05340C4DA842AE
:102B800008D00C4DA84205D00B4DA84202D00B4DE9
:102B9000A84204D14D6922F4804242EA8512426083
:102BA000C36149680164046230BD0000FF8FFFFE0D
:102BB000002C014000400140004401400048014019
:102BC00030B5026A22F480320262046A4268436DC0
:102BD0000F4D2B400D681D4324F400330C8943EA4C
:102BE00004430C4CA04208D00B4CA04205D00B4C27
:102BF000A04202D00A4CA04204D14C6922F4803297
:102C000042EA04224260456549688165036230BD3D
:102C10008FFFFEFF002C01400040014000440140B6
:102C20000048014030B5026A22F480120262046A50
:102C30004268436D104D24F400142B400D6843EAA4
:102C400005230D8944EA05540C4DA84208D00C4DCB
:102C5000A84205D00B4DA84202D00B4DA84204D18A
:102C60004D6922F4802242EA852242604365496828
:102C7000C165046230BD0000FF8FFFFE002C0140E3
:102C800000400140004401400048014010B5036A83
:102C9000046A24F001040462846924F0F00444EA24
:102CA000021423F00A020A438461026210BD10B5C7
:102CB000036A23F0100303628369046A23F47043F8
:102CC00043EA023224F0A00343EA01118261016267
:102CD00010BD000070B51B4D0446816A6A78006A19
:102CE00052B1B1EB500F0AD260780028207813D08F
:102CF00030B101280ED109E0B1EB500FF4D270BD14
:102D0000227B21896068FEF7D2F803E0D4E9040150
:102D1000FFF728F800200EE010B101280AD105E0E5
:102D2000627B21896068FEF7C2F803E0D4E9040100
:102D3000FFF748F801206070687880F00100687043
:102D400070BD00001400002090F82410C90706D0C0
:102D500001684A68836A22F400321A434A6090F894
:102D60002410890706D501684A68C36A22F48032B4
:102D70001A434A6090F82410490706D501684A684A
:102D8000036B22F480221A434A6090F8241009074A
:102D900006D501684A68436B22F400421A434A6030
:102DA00090F82410C90606D501688A68836B22F45E
:102DB00080521A438A6090F82410890606D501686B
:102DC0008A68C36B22F400521A438A6090F8241078
:102DD000490611D501684A68036C22F480121A432F
:102DE0004A60016CB1F5801F06D101684A68436CE6
:102DF00022F4C0021A434A6090F82410090606D54E
:102E000001684A68806C22F4002202434A607047DD
:102E1000F8B500260446C667FEF74EF8054620685A
:102E200000686FF07E47000708D52B4600224FF45C
:102E300000112046009700F077F960B9206800681B
:102E400040070AD52B4600224FF480012046009708
:102E500000F06AF908B10320F8BD20206067A06780
:102E600084F870600020F8BD10B5406A0021A0F819
:102E70005A10A0F85210FEF7DEFF10BD01680A6874
:102E800022F490720A6001688A6822F001028A6066
:102E90002021816700210166704710B5B0F85C20E1
:102EA000836F0168222B04D0886940F00800886194
:102EB00010BD898C436D11401980416D891C41659D
:102EC000B0F85A10491EA0F85A10B0F85A1000294C
:102ED000EED101680A6822F490720A6001688A687B
:102EE00022F001028A602021816700210166FFF73C
:102EF00017F910BD10B5B0F85C20836F0168222B64
:102F000004D0886940F00800886110BD898C1140A8
:102F1000426D1170416D491C4165B0F85A10491E4F
:102F2000A0F85A10B0F85A100029EED101680A68CA
:102F300022F490720A6001688A6822F001028A60B5
:102F40002021816700210166FFF7EAF810BD00002B
:102F500070B5044680682169E2690843616900250B
:102F60001143226808431168494B1940014311601D
:102F700020684168E26821F4405111434160A16931
:102F8000206A084321688A6822F4306202438A601A
:102F900040492068884210D13F48006B10F0030080
:102FA00014D0012805D0022805D003280DD1022015
:102FB0000CE004200AE0082008E03849884202D0EA
:102FC0003749884201D1002000E01020E2694FF427
:102FD00000414FF6EF768A422CD1092851D2DFE822
:102FE00000F005081F50225050502500FEF79AF9B6
:102FF00001E0FEF7AFF94100D4F8040001EB500105
:10300000B1FBF0F080B2A0F11001B14239D84FF617
:10301000F0710140C0F3420001432068C16031E01B
:1030200020496068EAE7FEF7ADF9E4E74FF4803144
:103030006068E3E7092824D2DFE800F005081723D9
:103040001A2323231D00FEF76DF901E0FEF782F934
:10305000616800EB5100B0FBF1F080B2A0F110010B
:10306000B1420ED82168C8600CE00F49606803E0E7
:10307000FEF788F9ECE7606801EB5001B1FBF0F076
:10308000EBE70125002020666066284670BD000041
:10309000F369FFEF00380140001002400044004097
:1030A000004800400024F40000127A00416F2129FA
:1030B00010D1B0F8521071B1C16C02680988C1F327
:1030C00008011185C16C891CC164B0F85210491EF9
:1030D000A0F85210704701680A6822F080020A6066
:1030E0000068016841F0400101607047416F21298B
:1030F0000ED1B0F8521061B1C16C02680978118527
:10310000C16C491CC164B0F85210491EA0F852109D
:10311000704701680A6822F080020A60006801684E
:1031200041F04001016070472DE9F0479A4617468B
:103130000E4604464FF000094FF02008089D39E084
:10314000681C37D0FDF7B8FEA0EB0A00A84222D8D1
:103150000DB32068016849072CD5C069C04300053C
:1031600028D421684FF4006008622068016821F4C7
:10317000D07101602068816821F001018160C4F88C
:103180007480C4F87880C4F87C8000BF84F87090A4
:103190000320BDE8F0872068016821F4D071016048
:1031A0002068816821F001018160C4F87480C4F84E
:1031B0007880EBE72068C06936EA000004D0002080
:1031C000B842BDD00020E4E70120F9E70148FEF74E
:1031D00033BE0000C4000020FEE700001FB500233E
:1031E0004FF40052054905208DE80F0003460022E8
:1031F00003490448FFF72EF81FBD000000080048EF
:10320000A92100084401002010B59FED0B0A0022FF
:103210000A490B48FFF75EF9002340F6B832012156
:103220000748FFF727F9064801230422BDE81040AC
:1032300004493030FFF7A4B8000048428400002061
:103240006C010020000400480907090E002804DB77
:1032500000F1E02080F80014704700F00F0000F14A
:10326000E02080F8141D704702E008C8121F08C152
:10327000002AFAD170477047002001E001C1121FF7
:10328000002AFBD1704700001CB517A1D1E900014D
:10329000CDE90001FDF71EFEFFF7FBFAFFF7D2F9BB
:1032A000FFF79AF9FFF794FAFFF744FAFEF76AF886
:1032B0000F4948600F48FDF7BFFC01220C490E483A
:1032C000FEF7D8FE0D48FEF7EFFBFFF787FFFFF78D
:1032D0009BFF40F2EE24072269460748FEF730FFC5
:1032E0002046FDF70DFDF6E748656C6C6F21000088
:1032F0000000002034000020C400002084000020D2
:1033000000000000010000000300000007000000B2
:103310000F0000001F0000003F0000007F000000C1
:10332000FF000000FF010000FF030000FF07000096
:10333000FF0F0000FF1F0000FF3F0000FF7F0000A5
:10334000FFFF0000FFFF0100FFFF0300FFFF07007A
:10335000FFFF0F00FFFF1F00FFFF3F00FFFF7F0089
:10336000FFFFFF00FFFFFF01FFFFFF03FFFFFF075E
:10337000FFFFFF0FFFFFFF1FFFFFFF3FFFFFFF7F6D
:10338000FFFFFFFF02030405060708090A0B0C0DE7
:103390000E0F10100102030405060708090A0B0CA2
:1033A0000D0E0F10000000000000000001020304D9
:1033B000060708090000000001020304DC330008CE
:1033C00000000020340000006832000810340008BB
:1033D000340000209C050000783200080000000046
:1033E00000000000000000000000000000000000DD
:1033F0000000000000000000CD050008D52C0008EA
:1034000001000000100000000000000000127A001F
:040000050800018965
:00000001FF
